:1000000012C01FC01EC01DC01CC01BC01AC019C01A
:1000100018C017C016C015C014C013C012C0F4C158
:100020001BC20FC00EC011241FBECFEDCDBF10E00C
:10003000A0E6B0E001C01D92A63AB107E1F789D170
:10004000B5C2DECF0F931F93CF93DF938C01E2E312
:10005000F0E080818F7B808380818B7F80838081B3
:100060008460808380818D7F808380818B7F80838B
:1000700080818460808380818260808380818B7FA7
:10008000808380818460808380818D7F8083808174
:100090008B7F808390E080818B7F808380818460F0
:1000A00080839F5F9730B9F760E070E0C0E0D0E0F8
:1000B000A2E3B0E0F801E60FF71F80819E01482F10
:1000C00050E08C918B7F8C93CA01022E02C09595D3
:1000D00087950A94E2F780FF04C08C9182608C932C
:1000E00003C08C918D7F8C938C9184608C932F5F57
:1000F0003F4F2830310529F76F5F7F4F6831710519
:10010000C9F6E2E3F0E080818460808380818260D0
:100110008083808180648083DF91CF911F910F91D4
:100120000895E2E3F0E090819F7B908322E0922F9C
:100130009A95F1F790819B7F9083922F9A95F1F792
:10014000908194609083922F9A95F1F790819D7F92
:10015000908390819B7F9083922F9A95F1F7908165
:1001600094609083922F9A95F1F790819B7F908372
:100170002A95F1F790819460908327E030E0482F32
:1001800050E062E080818B7F8083CA01022E02C032
:10019000959587950A94E2F780FF04C0808182607C
:1001A000808303C080818D7F8083862F8A95F1F7BD
:1001B000808184608083862F8A95F1F721503040BA
:1001C0008FEF2F3F3807F1F6E2E3F0E080818D7F7B
:1001D000808380818B7F808392E0892F8A95F1F7DD
:1001E0008081846080839A95F1F78081826080832A
:1001F0008081806480830895EF92FF921F93CF9354
:10020000DF93E2E3F0E080818F7B808380818B7FCE
:10021000808380818460808380818D7F80838081E2
:100220008B7F8083808184608083808182608083F3
:1002300080818B7F808380818460808380818D7FBB
:10024000808380818B7F808390E080818B7F80831F
:100250008081846080839F5F9730B9F710E0EE243F
:10026000FF24C2E3D0E0B3D09701482F50E088814B
:100270008B7F8883CA01022E02C0959587950A94C8
:10028000E2F780FF04C088818260888303C0888190
:100290008D7F88838881846088832F5F3F4F2830DB
:1002A000310529F71F5F1831F1F6E2E3F0E08081B4
:1002B0008460808380818260808380818064808389
:1002C000DF91CF911F91FF90EF9008950F931F93AF
:1002D00086EE81BB89EE87BB02E310E0F8018081E6
:1002E000866680838CE11DDF88E21BDF81E019DFF9
:1002F00083E017DF80E48FBD89E08EBD83E090E06E
:100300009BBD8ABDE8E3F0E0808186618083F801CF
:10031000808189618083E6E3F0E0808190E09295BE
:1003200082958F7089279F708927982F917080817F
:1003300082FD9260B19994608099986083999061F0
:1003400084999062892F806411D078941F910F91C5
:100350000895CF93DF93BADFC0E2DEE44CD0882368
:10036000E9F3CE010197F1F747DFF8CF1092830050
:10037000109282001092A5001092A4008093600059
:10038000A7E3B0E08C91806A8C93E8E3F0E0808191
:10039000806880838081806280838C918F7D8C9344
:1003A00088EA8DB980EF8EB90895282F8091A40036
:1003B0008F5F982F9F718091A5009817E1F3E4E873
:1003C000F0E0E90FF11D20839093A400089590912F
:1003D0008200809183009817D1F3809183008F5F12
:1003E0008F718093830080918300E2E6F0E0E80F54
:1003F000F11D80810895909182008091830020E01A
:10040000981321E0822F08951F920F920FB60F923A
:1004100011248F93EF93FF9310926100E7E3F0E0D4
:1004200080818F7D8083E6E3F0E0808188231CF467
:10043000808185FFFACFB59903C088EF8DB902C0DE
:1004400088EA8DB980EF8EB9FF91EF918F910F906F
:100450000FBE0F901F9018951F920F920FB60F921C
:1004600011248F939F93AF93BF93EF93FF9380914A
:100470006100823009F45DC0833030F4882369F074
:10048000813009F088C031C0843009F45EC0843006
:1004900020F1853009F07FC063C08FB1882331F02F
:1004A0008FB1869590916000891791F4789B04C074
:1004B00081E08093610003C084E0809361001FB8F5
:1004C000E7E3F0E08081806280838EE78EB963C0CD
:1004D00088EA8DB980E78EB95EC08FB1882329F094
:1004E00088EA8DB980E78EB956C09091A4008091BA
:1004F000A5009817C9F08091A5008F5F8F71809338
:10050000A5008091A500E4E8F0E0E80FF11D8081EE
:100510008FB982E080936100E7E3F0E08081806240
:10052000808380E78EB937C088EA8DB980E78EB9BD
:1005300032C083E080936100E7E3F0E080818F7D4B
:1005400080831FB88EE78EB926C085E08093610056
:10055000E7E3F0E080818F7D808380E78EB91BC068
:10056000809182008F5F8F718093820090918200D2
:10057000AFE2B0E08C91E2E6F0E0E90FF11D80839C
:1005800084E0809361001C92E7E3F0E08081806268
:1005900080838EE78EB9FF91EF91BF91AF919F91CC
:1005A0008F910F900FBE0F901F901895F894FFCF6A
:00000001FF
