:100000001DC037C036C035C034C033C032C031C067
:1000100030C02FC02EC02DC02CC02BC02AC029C07C
:1000200028C027C026C025C024C023C022C021C0AC
:1000300020C01FC01EC01DC01CC01CC011241FBE7C
:10004000CFEFD2E0DEBFCDBF11E0A0E0B1E0EEEE39
:10005000F7E002C005900D92A230B107D9F722E077
:10006000A2E0B1E001C01D92AE38B207E1F7ADD118
:10007000BCC3C6CF1F920F920FB60F9211248F935D
:10008000AF93BF93EF93FF938091A30087FD57C079
:100090008091A30086FF10C08091A30080FF39C02B
:1000A00083E08093A4008091A30080648093A300E8
:1000B00080910001811154C08091A30082FD04C091
:1000C0008091A30083FF1BC01092CD0188ECE3E078
:1000D000F1E0DF011D928A95E9F7809100018F5FC1
:1000E000809300018091A30084608093A30080919D
:1000F000A30088608093A30083E08093A400FF9115
:10010000EF91BF91AF918F910F900FBE0F901F9005
:10011000189583E08093A4008091A300806480936D
:10012000A3008091CD01882321F080910301809369
:100130000201809100018F5F80930001BDCF80910B
:10014000A000E091CD01F0E0ED5FFE4F808383E001
:100150008093A4008091CD018F5F8093CD0198CFD3
:100160001092CD0188ECE3E0F1E0DF011D928A9569
:10017000E9F710920001A0CF1ABA17BACD990DC0B5
:1001800095E881E8CF990DC0C899885FB299805FE2
:10019000CA99805EC999805C089597E883E8CF9BEF
:1001A000F3CF892FF1CFEF92FF920F93CF93DF938D
:1001B0001F92CDB7DEB77A013FEA3ABB34E037BBD6
:1001C00051EF5FBD5093CA0059E05EBD5093C90026
:1001D0003093670031EA3093680032ED3093660067
:1001E000EFEFF0E0FBBDEABDF093C500E093C40083
:1001F000F093C300E093C200F9BDE8BD0093A200F4
:100200003CE33093A500662339F0462F50E060E0D0
:1002100070E02983E3D22981222331F0422F50E07C
:1002200060E070E0C701DAD280E58093B20081E03F
:100230008093B10082E0809365008FEA8ABB809151
:10024000630080658093630078940F90DF91CF9175
:100250000F91FF90EF900895662329F0462F50E00C
:1002600060E070E0BBC20895CF92DF92EF92FF9200
:100270000F931F93CF93DF938B01005F1F4F039664
:100280007B0120EDE20EF11CB80168507109980164
:10029000D8015097FC016801AF0142505109EA01B1
:1002A000488146954695E6014A936E014081469500
:1002B00046954D93AF0141505109EA014881469559
:1002C0004695E90149939E013396A617B70721F792
:1002D000085E1F4F48960E151F05B1F6DF91CF91AE
:1002E0001F910F91FF90EF90DF90CF9008958F9224
:1002F0009F92AF92BF92CF92DF92EF92FF920F93B5
:100300001F93CF93DF938C010F5E1F4F7B016C0116
:1003100029E1C20ED11C8FE3A82EE7016096D70118
:100320001896470120E030E0C8014097B8016850B6
:10033000710923C0A882FB01408150E00B2C02C050
:10034000559547950A94E2F740FF27C0AC92F80113
:10035000408150E002C055954795BA94E2F7F40108
:1003600040FF19C0A0822F5F3F4FFFEF8F1A9F0AF7
:10037000119621962830310591F0B22EFC01408172
:1003800050E0022E02C0559547950A94E2F740FDD1
:10039000D1CF1882D0CF1082E6CF1C92D8CF0F5F7A
:1003A0001F4F28E1E20EF11C0C151D0509F0B5CF19
:1003B000DF91CF911F910F91FF90EF90DF90CF9041
:1003C000BF90AF909F908F900895CF93DF93CDB75C
:1003D000DEB76E970FB6F894DEBF0FBECDBFCCDE92
:1003E000082F20EC4EEC51E068EC83E091E0DBDE7E
:1003F0001A8E2A8D283088F080910201843009F409
:10040000E6C108F493C1803109F49DC1803209F43A
:10041000D5C1883009F47AC11A8E1092CC0110929D
:10042000CB0181E090E00A8C02C0880F991F0A94EA
:10043000E2F7282F209529838A8D880F3A8D830F24
:10044000880F880F880F90E08C0102531E4FBC016B
:1004500061537E4FAC0140535E4FDC01AF52BE4F43
:100460006D01FC01EE52FE4FFC8FEB8FDC01AD52B3
:10047000BE4F9C012C523E4F3E8F2D8FFC01EB5204
:10048000FE4F5F019C012A523E4F4901FC01E95297
:10049000FE4F3F019C0128523E4F2901FC01E752CB
:1004A000FE4F1F019C0126523E4F3B832A83FC01D5
:1004B000E552FE4FFD83EC839C0124523E4F3F8367
:1004C0002E83FC01E352FE4FF987E8879C012252FC
:1004D0003E4F3B872A87FC01E152FE4FFD87EC87A8
:1004E0009C0120523E4F3F872E87FC01EF51FE4F6B
:1004F000F98BE88B9C012E513E4F3B8B2A8BFC01E4
:10050000ED51FE4FFD8BEC8B9C012C513E4F3F8BF0
:100510002E8BFC01EB51FE4FF98FE88F78018B0198
:10052000BA011092B200D898D89AF0E5F093B200D0
:1005300029812093B0008091CB019091CC01F701EB
:10054000208130E08217930708F4EDC04DEF5FEF94
:10055000F801208130E08217930708F0452FFB0156
:10056000208130E08217930708F44B7FF601208149
:1005700030E08217930708F4477FEB8DFC8D2081D4
:1005800030E08217930708F44F7E2C9130E08217F9
:10059000930708F44F7DED8DFE8D208130E08217AA
:1005A000930708F44F7BF501208130E08217930711
:1005B00008F44F774093B0008091CB019091CC012B
:1005C000F401208130E08217930708F4A9C04DEFB1
:1005D0005FEFF301208130E08217930708F0452F89
:1005E000F201208130E08217930708F44B7FF1017C
:1005F000208130E08217930708F4477FEA81FB816E
:10060000208130E08217930708F44F7EEC81FD8152
:10061000208130E08217930708F44F7DEE81FF813F
:10062000208130E08217930708F44F7BE885F98535
:10063000208130E08217930708F44F774093B00091
:100640008091CB019091CC01EA85FB85208130E03F
:100650008217930708F461C04DEF5FEFEC85FD85CD
:10066000208130E08217930708F0452FEE85FF8543
:10067000208130E08217930708F44B7FE889F989DD
:10068000208130E08217930708F4477FEA89FB89CD
:10069000208130E08217930708F44F7EEC89FD89B2
:1006A000208130E08217930708F44F7DEE89FF899F
:1006B000208130E08217930708F44F7BE88DF98D95
:1006C000208130E08217930708F44F774093B00001
:1006D0002B8D3C8DED8DFE8D8091B10087FFFCCF81
:1006E0003C8F2B8FFE8FED8F8091CB019091CC01B1
:1006F00001969093CC018093CB018034910508F44E
:1007000010CFFA8DFF5FFA8F2F2F74CE80910401E6
:1007100090E099BD88BD1A8E80CE4CEF5EEF9ECFE3
:100720004CEF5EEF56CF4CEF5EEF12CF8130A1F071
:10073000823009F071CE6EEC71E083E091E0D7DD9C
:100740001092020169CE8091040190E09093C30061
:100750008093C2001A8E61CE4EED51E066E071E0EA
:10076000CA01FA0170976F01FB017A0118E09F013D
:1007700022503109D9012C9126952695D7012E9327
:100780007D01208126952695D6012D936D019F012F
:1007900021503109D9012C9126952695DC012D9304
:1007A000CD01115033961111E2CF485E5F4F685E64
:1007B0007F4FB2E04E395B0799F6C2CF80910401BA
:1007C00090E09093C5008093C4001A8E26CE80914D
:1007D000040190E09BBD8ABD1A8E1FCEDC0101C0D2
:0E07E0006D9341505040E0F70895F894FFCF1C
:0207EE00010008
:00000001FF
